:040000008131092918
:100008007E14803120007F08F500911E042991128A
:1000180082311F228031F100F2017108F600720866
:10002800F7002730840082308500003FF100013F4F
:10003800F2007108643EF3000030723DF400770866
:100048007406031D292876087306031D8D282200CF
:100058008E140E110E10273084008230850000089F
:10006800643E82311822803120002908823118220A
:10007800803120002908F2002808F1000430F3003C
:10008800720DF20CF10CF30B442871080F39823110
:1000980018228031200028080F3982311822803137
:1000A80027308400823085000008643E823118229F
:1000B800803127308400823085000008C83E8231B4
:1000C8001822803120002708823118228031200030
:1000D8002708F2002608F1000430F300720DF20C34
:1000E800F10CF30B722871080F3982311822803114
:1000F800200026080F3982311822803127308400E9
:10010800823085000008C83E8231182280312200E2
:100118008E102730840082308500003FF100013FB7
:10012800F2007108C83EF3000030723DF400770811
:100138007406031DA12876087306031D04292200EE
:100148008E140E150E1427308400823085000008A6
:10015800643E823118228031200029088231182219
:10016800803120002908F2002808F1000430F3004B
:10017800720DF20CF10CF30BBC2871080F398231A7
:1001880018228031200028080F3982311822803146
:1001980027308400823085000008643E82311822AE
:1001A800803127308400823085000008C83E8231C3
:1001B800182280312000270882311822803120003F
:1001C8002708F2002608F1000430F300720DF20C43
:1001D800F10CF30BEA2871080F39823118228031AB
:1001E800200026080F3982311822803127308400F8
:1001F800823085000008C83E8231182222008E1005
:1002080075082000FF007E10090081310B29F601D6
:10021800F701A601A701A801A90182312522813190
:10022800F80082312622F9007E10200081311C2935
:100238007A30210099008131C621813100302000B7
:10024800A3000030A2002530A1008030A000813139
:10025800A92181318131DF2181310D302000A500B4
:10026800A50B3429143021008C00143023008C0095
:1002780020008E0121000E108E100E110230200079
:10028800A0000030A1008131772181310D3020009C
:10029800A500A50B4D298131F421813120002108C9
:1002A800A9002008A8000D30A500A50B5929033086
:1002B8002000A0000030A1008131772181311A305F
:1002C8002000A500A50B662900008131F4218131A9
:1002D80020002108A7002008A6001A30A500A50BB9
:1002E8007329000042299829013021009D00080047
:1002F800053021009D000800093021009D000800FC
:100308000D3021009D000800113021009D000800DB
:10031800153021009D000800193021009D000800BB
:100328001D3021009D00080020002108003A031913
:100338009E29A82920088400083004020318080010
:1003480082310435083E82000800B02900302300BD
:100358009C0019309B00080020002308003A03196C
:10036800C029C5292108253A0319BB29C529200810
:10037800803A0319AA29C5292208003A0319B6297F
:10038800C529080022009D131D1123001E139E1667
:100398001E129E111E119D171D131D161D119D1055
:1003A8009F171F131F129F119F101F1021009116D6
:1003B8008B170B170800C2302200970021009E17E8
:1003C8001E088F3960389E001E1103309E040D30C0
:1003D8002000A000A00BEE2921001D149D1008008C
:1003E80021009D140D302000A200A20BF929210044
:1003F8001C082000A40021001B082000A3002408DA
:10040800A1002308A00008008131782981317C29C6
:1004180081318029813184298131882981318C2950
:100428008131902981319429F00023009E1C192ADA
:1004380070089A0008002000911E1F2A230019083E
:0A0448000800643400340C34003462
:020000040001F9
:04000E00E4C9FFDC66
:00000001FF
