:040000008131082919
:100008007E14803120007F08F500911E032991128B
:1000180082311E228031F100F2017108F600720867
:10002800F7002630840082308500003FF100013F50
:10003800F2007108643EF3000030723DF400770866
:100048007406031D292876087306031D8C282200D0
:100058008E140E1126308400823085000008643E1C
:1000680082311722803120002908823117228031FD
:1000780020002908F2002808F1000430F300720D6E
:10008800F20CF10CF30B432871080F398231172257
:100098008031200028080F3982311722803126301C
:1000A8008400823085000008643E82311722803146
:1000B80026308400823085000008C83E823117222D
:1000C800803120002708823117228031200027083C
:1000D800F2002608F1000430F300720DF20CF10C66
:1000E800F30B712871080F398231172280312000F3
:1000F80026080F3982311722803126308400823059
:1001080085000008C83E82311722803122008E10F7
:100118002630840082308500003FF100013FF20064
:100128007108C83EF3000030723DF4007708740689
:10013800031DA02876087306031D032922008E14C8
:100148000E150E1426308400823085000008643EA7
:10015800823117228031200029088231172280310C
:1001680020002908F2002808F1000430F300720D7D
:10017800F20CF10CF30BBB2871080F3982311722EE
:100188008031200028080F3982311722803126302B
:100198008400823085000008643E82311722803155
:1001A80026308400823085000008C83E823117223C
:1001B800803120002708823117228031200027084B
:1001C800F2002608F1000430F300720DF20CF10C75
:1001D800F30BE92871080F3982311722803120008A
:1001E80026080F3982311722803126308400823068
:1001F80085000008C83E8231172222008E1075083B
:100208002000FF007E10090081310A29F601F7015C
:10021800A601A701A801A901823124228131F80091
:1002280082312522F9007E10200081311B297A3085
:10023800210099008131C521813100302000A300BF
:100248000030A2002530A1008030A0008131A82113
:1002580081318131DE2181310D302000A500A50BCF
:100268003329143021008C00143023008C00200026
:100278008E0121000E108E100E1122000E14023075
:100288002000A0000030A1008131762181310D309D
:100298002000A500A50B4E298131F32181312000D2
:1002A8002108A9002008A8000D30A500A50B5A298F
:1002B80003302000A0000030A10081317621813177
:1002C8000D302000A500A50B67298131F32181316C
:1002D80020002108A7002008A6000D30A500A50BC6
:1002E800732941299729013021009D000800053014
:1002F80021009D000800093021009D0008000D30F4
:1003080021009D000800113021009D0008001530D3
:1003180021009D000800193021009D0008001D30B3
:1003280021009D00080020002108003A03199D299A
:10033800A729200884000830040203180800823125
:100348000435073E82000800AF29003023009C00D6
:1003580019309B00080020002308003A0319BF2920
:10036800C4292108253A0319BA29C4292008803A42
:100378000319A929C4292208003A0319B529C4294F
:10038800080022009D131D1123001E139E161E1225
:100398009E111E119D171D131D161D119D109F17CF
:1003A8001F131F129F119F101F10210091168B17EA
:1003B8000B170800C2302200970021009E171E0864
:1003C8008F3960389E001E1103309E040D302000C6
:1003D800A000A00BED2921001D149D10080021008C
:1003E8009D140D302000A200A20BF82921001C0842
:1003F8002000A40021001B082000A3002408A1005D
:100408002308A00008008131772981317B298131B7
:100418007F29813183298131872981318B29813154
:100428008F2981319329F00023009E1C182A700817
:100438009A0008002000911E1E2A230019080800AF
:08044800643400340134003477
:020000040001F9
:04000E00E4C9FFDC66
:00000001FF
