:040000008131092918
:100008007E14803120007F08F500911E042991128A
:1000180082311D228031F100F2017108F600720868
:10002800F7002530840082308500003FF100013F51
:10003800F2007108643EF3000030723DF400770866
:100048007406031D292876087306031D8D282200CF
:100058008E140E110E1025308400823085000008A1
:10006800643E82311622803120002908823116220E
:10007800803120002908F2002808F1000430F3003C
:10008800720DF20CF10CF30B442871080F39823110
:1000980016228031200028080F398231162280313B
:1000A80025308400823085000008643E82311622A3
:1000B800803125308400823085000008C83E8231B6
:1000C8001622803120002708823116228031200034
:1000D8002708F2002608F1000430F300720DF20C34
:1000E800F10CF30B722871080F3982311622803116
:1000F800200026080F3982311622803125308400ED
:10010800823085000008C83E8231162280312200E4
:100118008E102530840082308500003FF100013FB9
:10012800F2007108C83EF3000030723DF400770811
:100138007406031DA12876087306031D04292200EE
:100148008E140E150E1425308400823085000008A8
:10015800643E82311622803120002908823116221D
:10016800803120002908F2002808F1000430F3004B
:10017800720DF20CF10CF30BBC2871080F398231A7
:1001880016228031200028080F398231162280314A
:1001980025308400823085000008643E82311622B2
:1001A800803125308400823085000008C83E8231C5
:1001B8001622803120002708823116228031200043
:1001C8002708F2002608F1000430F300720DF20C43
:1001D800F10CF30BEA2871080F39823116228031AD
:1001E800200026080F3982311622803125308400FC
:1001F800823085000008C83E8231162222008E1007
:1002080075082000FF007E10090081310B29F601D6
:10021800F701A601A701A801A90182312322813192
:10022800F80082312422F9007E10200081311C2937
:100238007A30210099008131C421813100302000B9
:10024800A3000030A2002530A1008030A000813139
:10025800A72181318131DD2181310D302000A500B8
:10026800A50B3429143021008C00143023008C0095
:1002780020008E0121000E108E100E110230200079
:10028800A0000030A1008131752181310D3020009E
:10029800A500A50B4D298131F221813120002108CB
:1002A800A9002008A8000D30A500A50B5929033086
:1002B8002000A0000030A1008131752181310D306E
:1002C8002000A500A50B66298131F221813120008B
:1002D8002108A7002008A6000D30A500A50B72294B
:1002E80042299629013021009D000800053021008F
:1002F8009D000800093021009D0008000D302100F4
:100308009D000800113021009D00080015302100D3
:100318009D000800193021009D0008001D302100B3
:100328009D00080020002108003A03199C29A629ED
:1003380020088400083004020318080082310435BC
:10034800063E82000800AE29003023009C001930C8
:100358009B00080020002308003A0319BE29C3297E
:100368002108253A0319B929C3292008803A031915
:10037800A829C3292208003A0319B429C329080067
:1003880022009D131D1123001E139E161E129E117E
:100398001E119D171D131D161D119D109F171F134C
:1003A8001F129F119F101F10210091168B170B17FA
:1003B8000800C2302200970021009E171E088F39BE
:1003C80060389E001E1103309E040D302000A000EE
:1003D800A00BEC2921001D149D10080021009D147C
:1003E8000D302000A200A20BF72921001C082000D4
:1003F800A40021001B082000A3002408A100230852
:10040800A00008008131762981317A2981317E293D
:10041800813182298131862981318A2981318E2948
:1004280081319229F00023009E1C172A70089A0037
:1004380008002000911E1D2A2300190808006434B2
:0604480000340C34003406
:020000040001F9
:04000E00E4C9FFDC66
:00000001FF
